:020000040808EA
:10840000E0110020AD950808459108084D91080835
:10841000559108085D910808659108086D91080854
:108420000000000000000000000000007591080836
:108430007D91080800000000859108088D910808CA
:10844000959108089D910808A5910808AD91080824
:10845000B5910808BD910808C5910808CD91080894
:10846000D5910808DD910808E5910808ED91080804
:10847000F5910808FD910808059208080D92080872
:10848000159208081D920808259208082D920808E0
:10849000359208083D920808459208084D92080850
:1084A000559208085D920808659208086D920808C0
:1084B000759208087D920808859208088D92080830
:1084C000959208089D920808A5920808AD920808A0
:1084D000B5920808BD920808C5920808CD92080810
:1084E000D5920808DD920808E5920808ED92080880
:1084F000F5920808FD920808059308080D930808EE
:10850000159308081D930808259308082D9308085B
:10851000359308083D930808459308084D930808CB
:10852000559308085D930808659308086D9308083B
:10853000759308087D930808859308088D930808AB
:10854000959308089D930808A5930808AD9308081B
:10855000B5930808BD930808C5930808CD9308088B
:10856000D5930808DD930808E5930808ED930808FB
:10857000F5930808FD930808059408080D94080869
:10858000159408081D940808259408082D940808D7
:10859000359408083D940808459408084D94080847
:1085A000559408085D940808659408086D940808B7
:1085B000759408087D940808859408088D94080827
:1085C000959408089D940808A5940808AD94080897
:1085D000B5940808BD940808C5940808CD94080807
:1085E000D5940808DD940808E5940808ED94080877
:1085F000F5940808FD940808059508080D950808E5
:10860000159508081D950808259508082D95080852
:10861000359508083D950808459508084D950808C2
:10862000559508085D950808659508086D95080832
:10863000759508087D950808859508088D950808A2
:10864000959508089D950808A59508080348044BCA
:10865000834202D0034B03B1184770470401002046
:108660000401002000000000064B0749C91A8910C8
:1086700048BF0131491003D0044B0BB101481847E2
:10868000704700BF0401002004010020000000002A
:1086900010B5064C237843B9FFF7D8FF044B13B14C
:1086A0000448AFF300800123237010BD04010020B3
:1086B0000000000090EC080808B5054B1BB1054907
:1086C0000548AFF30080BDE80840FFF7CDBF00BF0D
:1086D000000000000801002090EC0808A3F5803A93
:1086E000704700BF174B002B08BF134B9D46FFF789
:1086F000F5FF00218B460F461348144A121A06F064
:1087000001F90E4B002B00D098470D4B002B00D0E9
:1087100098470020002104000D000D48002802D0D9
:108720000C48AFF3008006F0F5F82000290000F0B7
:108730006FF906F0C5F800BF000008000000000057
:1087400000000000E011002004010020C40100200E
:10875000000000000000000080B584B000AF786029
:1087600039600023FB6014E07A68FB6813441B78CF
:108770001B09DBB203F00F017A68FB6813441B7816
:1087800003F00F031A46074800F09AFBFB68013319
:10879000FB60FA683B689A42E6D300BF00BF10371F
:1087A000BD4680BDA8E9080880B582B000AF7860FA
:1087B00039603B68002B04D17968094800F080FBE0
:1087C00009E03A687968074800F07AFB064B1B68B5
:1087D0000133054A136000BF0837BD4680BD00BFA6
:1087E000B0E90808C0E908082001002080B58CB075
:1087F00002AF00233B60244800F062FB00F0C2FBA4
:108800007862796A2148FFF7CFFF7B6A002B37D166
:108810003A1D3B46019320230093134603221C4933
:108820001C4800F0B7FB7862796A1B48FFF7BCFF71
:108830007B6A002B25D1194800F042FB3A683B1DAA
:1088400011461846FFF788FF154800F039FB3B68D2
:10885000202B08D13B1D20221249184606F042F871
:108860000346002B08D0104800F02AFB0F4B1B6872
:1088700001330E4A136004E00D4800F021FB00E0D4
:1088800000BF2837BD4680BDD8E90808E8E90808D8
:10889000C0EB080809000002F8E9080814EA080813
:1088A0001CEA0808C4EB080820EA08082001002098
:1088B0004CEA080880B58AB002AF41F201024FF0DD
:1088C0000003C7E9062300233B60264800F0F8FABE
:1088D000D7E9060100F0F6FB00230093224B0722A4
:1088E000D7E9060100F08EFB786179691F48FFF730
:1088F0005BFF3B1D10220021184606F003F83B46A3
:1089000001933B1D009310230022D7E9060100F0DC
:10891000A3FB786179691648FFF746FF7B69002B56
:1089200013D13B68072B08D13B1D07220E4918467F
:1089300005F0D8FF0346002B07D00E4800F0C0FA20
:108940000D4B1B6801330C4A1360D7E9060100F098
:10895000B9FB786179690948FFF726FF00BF203726
:10896000BD4680BD6CEA0808E4EB080878EA080810
:1089700084EA080890EA080820010020B0EA080804
:1089800080B590B000AF1D4800F09AFA3B463C22FB
:108990000021184605F0B6FF3B461946002000F0BE
:1089A000AFFBF863F96B1648FFF7FEFEFB6B002B7D
:1089B00006D13B7819463B691A46124800F080FA06
:1089C0003B463C220021184605F09CFF3B461946D9
:1089D000012000F095FBF863F96B0B48FFF7E4FE0C
:1089E000FB6B002B06D13B7819463B691A460748BA
:1089F00000F066FA00BF4037BD4680BDC0EA0808F7
:108A0000D0EA0808E4EA080800EB080814EB0808B4
:108A100080B500AF00F044F80346002B01D000BF42
:108A2000FDE700F045F80346002B01D000BFFDE74D
:108A3000144800F045FA144800F042FA00F068FAD1
:108A40000346002B04D0114800F03AFA00BFFDE7BE
:108A50000F4800F035FAFFF7C9FEFFF72BFFFFF7CD
:108A60008FFF0C4B1B68002B03D10B4800F028FA3A
:108A700006E0084B1B681946084800F021FA00BFC1
:108A800000BFFDE730EB080840EB080860EB080882
:108A900080EB0808200100209CEB0808ACEB0808DC
:108AA00080B500AF00F0EEFE0023184680BD000048
:108AB00080B400AF064BD3F88830054A43F4700306
:108AC000C2F8883000231846BD465DF8047B704725
:108AD00000ED00E080B582B000AF78600B46FB701F
:108AE0007B681B68591C7A6811607A681344FA78AD
:108AF0001A717B681B681F2B08D97B6800221A60DB
:108B00007B6804332021184600F08CFE00BF083734
:108B1000BD4680BD80B584B000AF78603960002369
:108B2000FB600AE03B685A1C3A601B78194678687B
:108B3000FFF7D0FFFB680133FB603B681B78002B1D
:108B4000F0D1FB6818461037BD4680BD80B58AB0AD
:108B500000AFF860B9601346FB7100237B6207F138
:108B6000100300221A605A609A60BB683B620023BF
:108B7000FB61FB79642B0CD1BB68002B09DA2D213A
:108B8000F868FFF7A7FF7B6A01337B62BB685B4233
:108B90003B62396A194BA3FB0123DA0813469B0099
:108BA00013445B00CA1AD2B2FB69591CF961303216
:108BB000D2B228333B4403F8182C3B6A0F4AA2FB7D
:108BC0000323DB083B623B6A002BE2D10EE0FB692A
:108BD000013BFB6107F11002FB6913441B78194646
:108BE000F868FFF777FF7B6A01337B62FB69002B34
:108BF000EDD17B6A18462837BD4680BDCDCCCCCCA4
:108C000080B58AB000AFF860B9607A6000237B62FB
:108C100007F1140300221A605A609A6000233B6235
:108C2000BB6803F00F037A681A443B6A591C396227
:108C3000127828333B4403F8142CBB681B09BB6033
:108C4000BB68002BECD10EE03B6A013B3B6207F1B5
:108C500014023B6A13441B781946F868FFF73AFF81
:108C60007B6A01337B623B6A002BEDD17B6A18463D
:108C70002837BD4680BD000080B58CB000AF78605D
:108C800039600023FB620023BB60F8E07B681B783F
:108C9000252B40F0E7807B6801337B607B681B7885
:108CA000252B00F0C680252BC0F2CD80782B00F359
:108CB000CA80582BC0F2C780583B202B00F2C380DB
:108CC00001A252F823F000BFA78D0808478E0808BC
:108CD000478E0808478E0808478E0808478E080800
:108CE000478E0808478E0808478E0808478E0808F0
:108CF000478E0808158E08084D8D0808478E08080D
:108D0000478E0808478E0808478E08084D8D0808CA
:108D1000478E0808478E0808478E0808478E0808BF
:108D2000478E0808478E0808C58D0808478E080832
:108D3000478E0808F78D0808478E08086B8D0808CD
:108D4000478E0808478E0808898D08083B681A1D59
:108D50003A60196807F1080364221846FFF7F6FE27
:108D60000246FB6A1344FB6278E03B681A1D3A60D6
:108D7000196807F1080375221846FFF7E7FE024657
:108D8000FB6A1344FB6269E03B681A1D3A6019688C
:108D900007F10803464A1846FFF732FF0246FB6A0E
:108DA0001344FB625AE03B681A1D3A60196807F1E8
:108DB0000803404A1846FFF723FF0246FB6A1344A4
:108DC000FB624BE007F108033B491846FFF7A2FEA0
:108DD0000246FB6A1344FB623B681A1D3A6019683D
:108DE00007F10803324A1846FFF70AFF0246FB6AFA
:108DF0001344FB6232E03B681A1D3A601A6807F1BF
:108E0000080311461846FFF785FE0246FB6A134425
:108E1000FB6223E03B681A1D3A601B68DAB207F177
:108E2000080311461846FFF755FEFB6A0133FB6243
:108E300014E007F1080325211846FFF74BFEFB6AF3
:108E40000133FB620AE007F108031C491846FFF7EB
:108E500061FE0246FB6A1344FB6210E07B6801334B
:108E60007B600CE07B685A1C7A601A7807F1080373
:108E700011461846FFF72EFEFB6A0133FB627B6842
:108E80001B78002B7FF402AFBB68002B0BD0BA68B5
:108E900007F1080304331146184600F0C3FC0246EC
:108EA000FB6A1344FB62FB6A18463037BD4680BD3F
:108EB000ECEB0808FCEB08080CEC080810EC0808C0
:108EC0000FB480B582B000AF00237B6007F11403BC
:108ED0003B6039683869FFF7CFFE78607B681846D9
:108EE0000837BD46BDE8804004B0704790B585B0F6
:108EF00000AFF860B9607A603B60FC683B6A3A6832
:108F00007968B868A047034618461437BD4690BD37
:108F100080B400AF00231846BD465DF8047B70475F
:108F200080B586B002AFF860B9607A603B60BB681C
:108F3000B3F5004F08DABB68002B05DB3B68042B58
:108F400002D8FB69042B02D96FF0800314E0F968A2
:108F5000BB689AB23B681B0603F0E0631A43FB69E7
:108F60001B0403F4E0231A437868BB6900930346AB
:108F70000348FFF7BBFF034618461037BD4680BDC8
:108F8000E15F080C80B400AF00231846BD465DF8D1
:108F9000047B704780B59CB002AFF860B9607A601E
:108FA0003B6007F1280338220021184605F0AAFC8F
:108FB000FB68FB624FF44073A7F8503007F12803B9
:108FC000BB613823FB61BB683B627B687B623B68AB
:108FD0003B613B6F7B6107F118020123019307F1AD
:108FE00010030093022300210548FFF799FF7866DC
:108FF0007A697B6F1A607B6E18466837BD4680BD04
:109000000001004080B58EB002AFC7E902017A606E
:109010003B6007F108037B610823BB613B68FB6190
:109020007B683B6207F138037B620423BB6207F174
:1090300014020023019300230093032340F2E9313B
:109040000448FFF76DFFF862FB6A18463037BD46EB
:1090500080BD00BF0201004080B58EB002AFC7E9FD
:1090600002017A603B6007F10803BB610823FB61E2
:1090700007F128033B6204237B62BB6B3B613B68C7
:109080007B617B68BB62FB6B002B02D16FF08603B8
:1090900011E007F118020123019307F11003009377
:1090A000022340F2EA310648FFF73AFFF8627A6994
:1090B000FB6B1A60FB6A18463037BD4680BD00BFA7
:1090C0000201004080B588B002AFC7E900013B460D
:1090D000FB6008233B6107F10C020023019300238E
:1090E000009301234FF47B710448FFF719FF786167
:1090F0007B6918461837BD4680BD00BF020100409D
:1091000080B588B002AF03463960FB71FB1D3B613F
:1091100001237B613B68BB603C23FB6007F11002CD
:109120000123019307F108030093012340F2F23178
:109130000348FFF7F5FE034618461837BD4680BDC5
:109140000401004080B400AF00BFFDE780B400AF71
:1091500000BFFDE780B400AF00BFFDE780B400AF03
:1091600000BFFDE780B400AF00BFFDE780B400AFF3
:1091700000BFFDE780B400AF00BFFDE780B400AFE3
:1091800000BFFDE780B400AF00BFFDE780B400AFD3
:1091900000BFFDE780B400AF00BFFDE780B400AFC3
:1091A00000BFFDE780B400AF00BFFDE780B400AFB3
:1091B00000BFFDE780B400AF00BFFDE780B400AFA3
:1091C00000BFFDE780B400AF00BFFDE780B400AF93
:1091D00000BFFDE780B400AF00BFFDE780B400AF83
:1091E00000BFFDE780B400AF00BFFDE780B400AF73
:1091F00000BFFDE780B400AF00BFFDE780B400AF63
:1092000000BFFDE780B400AF00BFFDE780B400AF52
:1092100000BFFDE780B400AF00BFFDE780B400AF42
:1092200000BFFDE780B400AF00BFFDE780B400AF32
:1092300000BFFDE780B400AF00BFFDE780B400AF22
:1092400000BFFDE780B400AF00BFFDE780B400AF12
:1092500000BFFDE780B400AF00BFFDE780B400AF02
:1092600000BFFDE780B400AF00BFFDE780B400AFF2
:1092700000BFFDE780B400AF00BFFDE780B400AFE2
:1092800000BFFDE780B400AF00BFFDE780B400AFD2
:1092900000BFFDE780B400AF00BFFDE780B400AFC2
:1092A00000BFFDE780B400AF00BFFDE780B400AFB2
:1092B00000BFFDE780B400AF00BFFDE780B400AFA2
:1092C00000BFFDE780B400AF00BFFDE780B400AF92
:1092D00000BFFDE780B400AF00BFFDE780B400AF82
:1092E00000BFFDE780B400AF00BFFDE780B400AF72
:1092F00000BFFDE780B400AF00BFFDE780B400AF62
:1093000000BFFDE780B400AF00BFFDE780B400AF51
:1093100000BFFDE780B400AF00BFFDE780B400AF41
:1093200000BFFDE780B400AF00BFFDE780B400AF31
:1093300000BFFDE780B400AF00BFFDE780B400AF21
:1093400000BFFDE780B400AF00BFFDE780B400AF11
:1093500000BFFDE780B400AF00BFFDE780B400AF01
:1093600000BFFDE780B400AF00BFFDE780B400AFF1
:1093700000BFFDE780B400AF00BFFDE780B400AFE1
:1093800000BFFDE780B400AF00BFFDE780B400AFD1
:1093900000BFFDE780B400AF00BFFDE780B400AFC1
:1093A00000BFFDE780B400AF00BFFDE780B400AFB1
:1093B00000BFFDE780B400AF00BFFDE780B400AFA1
:1093C00000BFFDE780B400AF00BFFDE780B400AF91
:1093D00000BFFDE780B400AF00BFFDE780B400AF81
:1093E00000BFFDE780B400AF00BFFDE780B400AF71
:1093F00000BFFDE780B400AF00BFFDE780B400AF61
:1094000000BFFDE780B400AF00BFFDE780B400AF50
:1094100000BFFDE780B400AF00BFFDE780B400AF40
:1094200000BFFDE780B400AF00BFFDE780B400AF30
:1094300000BFFDE780B400AF00BFFDE780B400AF20
:1094400000BFFDE780B400AF00BFFDE780B400AF10
:1094500000BFFDE780B400AF00BFFDE780B400AF00
:1094600000BFFDE780B400AF00BFFDE780B400AFF0
:1094700000BFFDE780B400AF00BFFDE780B400AFE0
:1094800000BFFDE780B400AF00BFFDE780B400AFD0
:1094900000BFFDE780B400AF00BFFDE780B400AFC0
:1094A00000BFFDE780B400AF00BFFDE780B400AFB0
:1094B00000BFFDE780B400AF00BFFDE780B400AFA0
:1094C00000BFFDE780B400AF00BFFDE780B400AF90
:1094D00000BFFDE780B400AF00BFFDE780B400AF80
:1094E00000BFFDE780B400AF00BFFDE780B400AF70
:1094F00000BFFDE780B400AF00BFFDE780B400AF60
:1095000000BFFDE780B400AF00BFFDE780B400AF4F
:1095100000BFFDE780B400AF00BFFDE780B400AF3F
:1095200000BFFDE780B400AF00BFFDE780B400AF2F
:1095300000BFFDE780B400AF00BFFDE780B400AF1F
:1095400000BFFDE780B400AF00BFFDE780B400AF0F
:1095500000BFFDE780B400AF00BFFDE780B400AFFF
:1095600000BFFDE780B400AF00BFFDE780B400AFEF
:1095700000BFFDE780B400AF00BFFDE780B400AFDF
:1095800000BFFDE780B400AF00BFFDE780B400AFCF
:1095900000BFFDE780B400AF00BFFDE780B400AFBF
:1095A00000BFFDE780B400AF00BFFDE780B586B027
:1095B00000AF234B7B607B6883F30A8800BF00F019
:1095C00049F8204B7B6119E000233B610EE07B6989
:1095D0001A683B699B001A447B6959683B699B0088
:1095E0000B4412681A603B6901333B617B699B68DD
:1095F0003A699A42EBD37B690C337B617B69124AEF
:109600009342E1D3114BFB6014E00023BB6009E0FF
:10961000FB681A68BB689B00134400221A60BB6891
:109620000133BB60FB685B68BA689A42F0D3FB68A1
:109630000833FB60FB68064A9342E6D3FFF752F813
:10964000E001002068E9080880E9080880E90808C6
:1096500090E9080880B500AF054BD3F88830044A7C
:1096600043F47003C2F8883000F004F800BF80BDF6
:1096700000ED00E080B400AF674B1B6B23F48073F8
:1096800023F00103644A43F480731363624B1B6944
:10969000614A43F03003136100BF5F4B5B6903F025
:1096A0000803082BF9D15D4B1B6923F4FE035B4AC9
:1096B00043F480031361594B1B68584A23F0180385
:1096C0001360564B1B68554A43F00103136000BFFB
:1096D000524B1B6803F00203022BF9D1504B1B685D
:1096E00023F00F034E4A43F0050313604B4B9B6A74
:1096F00023F00303494A43F001039362474B9B6AFB
:10970000464A43F480339362444B9B6A434A43F492
:1097100000339362414B9B6A404A43F48023936237
:109720003E4B9B6A3D4A23F0100393623B4B9B6A7E
:1097300023F00C03394A43F008039362374B9B6ACA
:10974000364A23F020039362344B9B6A23F47C5304
:10975000324A43F400639362304B5B6B23F4FF7334
:1097600023F001032D4A43F03B0353632B4B5B6B08
:1097700023F47E43294A43F400735363274B5B6B06
:1097800023F4FE03254A43F480335363234B5B6B7E
:1097900023F0FE43214A43F0807353631F4B1B6841
:1097A0001E4A43F08073136000BF1C4B1B6803F01C
:1097B0000073B3F1007FF8D1184B1B6A174A23F0EE
:1097C0000F031362154B1B6A144A23F070031362D4
:1097D000124B1B6A114A23F4E06313620F4B1B6A9E
:1097E0000E4A23F4E04313620C4BDB690B4A43F04F
:1097F0000303D36100BF094BDB6903F01803182B87
:10980000F9D1064B1B68054A43F48053136000BF2F
:10981000BD465DF8047B704700080244000C02441A
:109820000020024080B584B000AF78603960134BEF
:109830001B7883F00103DBB2002B01D0002319E079
:109840000F4B5B69396878689847F860FB68002BB4
:1098500001D000230EE000BF094BDB6A98470346A6
:10986000DBB203F00103DBB2002BF5D1044B1B6A22
:109870009847034618461037BD4680BD2401002096
:1098800040EC080880B582B000AF4FF0FF337B603A
:10989000184B9B680020984778607B68002B1ED18E
:1098A000144B1B690220984778607B68002B18D105
:1098B000104B9B6A4FF4E1310120984778607B6838
:1098C000002B10D10B4B9B6A012115209847786023
:1098D0007B68002B09D1084B01221A7006E000BFFB
:1098E00004E000BF02E000BF00E000BF0837BD4653
:1098F00080BD00BF40EC08082401002080B483B084
:1099000000AF084B1B687B600023BA8862F30F032B
:10991000FA8862F31F4318460C37BD465DF8047B96
:10992000704700BF3CEC080880B400AF002343F050
:1099300001031846BD465DF8047B704780B58AB0C8
:1099400000AF78603B4BD3F88C303A4A43F00103C8
:10995000C2F88C30374BD3F88C3003F001033B61F5
:109960003B69344BD3F88C30324A43F00103C2F8E0
:109970008C30304BD3F88C3003F00103FB60FB6874
:109980002C4BD3F8A4302B4A43F48043C2F8A430C4
:10999000284BD3F8A43003F48043BB60BB684FF47A
:1099A00000737B610223BB6102233B620123FB61E5
:1099B00007237B6207F1140319461F4800F0ECF8F7
:1099C0004FF480637B6107237B6207F11403194620
:1099D000194800F0E1F8194B194A1A60174B4FF477
:1099E000E1325A60154B00229A60144B0022DA6073
:1099F000124B00221A61114B0C225A610F4B0022AC
:109A00009A610E4B4FF40042DA610C4B00221A624D
:109A10000A4B00225A62094803F0F2FA0346002B6F
:109A200002D04FF0FF3300E0002318462837BD4630
:109A300080BD00BF000C024400000242280100204B
:109A40000038014080B400AF00231846BD465DF8E1
:109A5000047B704780B483B000AF0346FB710023E2
:109A600018460C37BD465DF8047B704780B582B060
:109A700000AF786039607B68002B02D03B68002B18
:109A800002D16FF0040308E03B689AB24FF47A7396
:109A90007968044803F00EFB002318460837BD46DA
:109AA00080BD00BF2801002080B582B000AF786083
:109AB00039607B68002B02D03B68002B02D16FF02D
:109AC000040307E03B689BB21A467968034803F039
:109AD00087FB3B6818460837BD4680BD280100203B
:109AE00080B485B000AFF860B9607A606FF00303AE
:109AF00018461437BD465DF8047B704780B400AF4C
:109B000000231846BD465DF8047B704780B400AF63
:109B100000231846BD465DF8047B704780B483B0CF
:109B200000AF78603960002318460C37BD465DF8F9
:109B3000047B704780B483B000AF00237B607B68F8
:109B400018460C37BD465DF8047B704780B483B07F
:109B500000AF0346FB716FF0030318460C37BD4698
:109B60005DF8047B704780B483B000AF00237B6056
:109B70007B6818460C37BD465DF8047B70470000D3
:109B800080B400AF034B1B681846BD465DF8047BEC
:109B9000704700BFBC01002080B487B000AF786080
:109BA000396000233B6136E13B681A6801213B695B
:109BB00001FA03F31340FB60FB68002B00F02881DF
:109BC0003B685B68022B03D03B685B68122B25D196
:109BD0003B69DA087B68083253F822307B613B69C5
:109BE00003F007039B000F2202FA03F3DB437A69B9
:109BF00013407B613B681B6903F00F023B6903F074
:109C000007039B0002FA03F37A6913437B613B6904
:109C1000DA087B680832796943F822107B681B6890
:109C20007B613B695B00032202FA03F3DB437A6941
:109C300013407B613B685B6803F003023B695B0098
:109C400002FA03F37A6913437B617B687A691A60CD
:109C50003B685B68012B0BD03B685B68022B07D02D
:109C60003B685B68112B03D03B685B68122B30D1DB
:109C70007B689B687B613B695B00032202FA03F30C
:109C8000DB437A6913407B613B68DA683B695B00C0
:109C900002FA03F37A6913437B617B687A699A60FD
:109CA0007B685B687B6101223B6902FA03F3DB435B
:109CB0007A6913407B613B685B681B0903F0010212
:109CC0003B6902FA03F37A6913437B617B687A6923
:109CD0005A603B685B68032B17D07B68DB687B614D
:109CE0003B695B00032202FA03F3DB437A6913400A
:109CF0007B613B689A683B695B0002FA03F37A690F
:109D000013437B617B687A69DA603B685B6803F0C8
:109D10008053002B7CD0474A3B699B08183352F88C
:109D200023307B613B6903F00303DB000F2202FA5F
:109D300003F3DB437A6913407B617B689A0A3E4BED
:109D400013403A6902F00302D20093407A69134348
:109D50007B6138493B699B0818337A6941F82320B5
:109D6000344BD3F880307B61FB68DB437A69134066
:109D70007B613B685B6803F48033002B03D07A6916
:109D8000FB6813437B612B4A7B69C2F88030294B07
:109D9000D3F884307B61FB68DB437A6913407B61D5
:109DA0003B685B6803F40033002B03D07A69FB68DF
:109DB00013437B611F4A7B69C2F884301D4B1B68CB
:109DC0007B61FB68DB437A6913407B613B685B68BE
:109DD00003F48013002B03D07A69FB6813437B6183
:109DE000144A7B691360134B5B687B61FB68DB4340
:109DF0007A6913407B613B685B6803F40013002BB6
:109E000003D07A69FB6813437B610A4A7B6953601C
:109E10003B6901333B613B681A683B6922FA03F3F3
:109E2000002B7FF4C1AE00BF00BF1C37BD465DF8FC
:109E3000047B7047002002447F7F2F0080B489B0EC
:109E400000AF8C4BDB6903F01803082B02D18A4B5F
:109E5000FB6107E1874BDB6903F01803002B12D18C
:109E6000844B1B6803F02003002B09D0814B1B6837
:109E7000DB0803F00303814A22FA03F3FB61F1E0FC
:109E80007E4BFB61EEE07B4BDB6903F01803102B8C
:109E900002D17B4BFB61E5E0764BDB6903F01803F5
:109EA000182B40F0DD80734B9B6A03F003037B614A
:109EB000704B9B6A1B0A03F03F033B616D4B9B6A2F
:109EC0001B0903F00103FB606A4B9B6BDB08C3F3C8
:109ED0000C03FA6802FB03F307EE903AF8EE677A98
:109EE000C7ED027A3B69002B00F0B7807B69012B3C
:109EF00003D07B69032B56D077E05E4B1B6803F0E1
:109F00002003002B2DD05B4B1B68DB0803F0030301
:109F10005A4A22FA03F37B607B6807EE903AF8EE28
:109F2000676A3B6907EE903AF8EE677A86EEA77AA1
:109F3000504B5B6BC3F3080307EE903AF8EE676A89
:109F400097ED026ADFED4F5AC6EE257A76EEA77AD4
:109F5000F7EE006A77EEA67A67EE277AC7ED067A03
:109F600065E03B6907EE903AF8EE677ADFED466A06
:109F700086EEA77A3F4B5B6BC3F3080307EE903A7C
:109F8000F8EE676A97ED026ADFED3E5AC6EE257A73
:109F900076EEA77AF7EE006A77EEA67A67EE277A72
:109FA000C7ED067A43E03B6907EE903AF8EE677A30
:109FB000DFED366A86EEA77A2E4B5B6BC3F30803A0
:109FC00007EE903AF8EE676A97ED026ADFED2D5AD8
:109FD000C6EE257A76EEA77AF7EE006A77EEA67AD5
:109FE00067EE277AC7ED067A21E03B6907EE903AE3
:109FF000F8EE677ADFED266A86EEA77A1D4B5B6B7B
:10A00000C3F3080307EE903AF8EE676A97ED026A29
:10A01000DFED1C5AC6EE257A76EEA77AF7EE006AD7
:10A0200077EEA67A67EE277AC7ED067A00BF114B66
:10A030005B6B5B0A03F07F0301333B603B6807EE19
:10A04000903AB8EE677AD7ED066AC6EE877AFCEEEC
:10A05000E77A17EE903AFB6104E00023FB6101E030
:10A06000064BFB61FB6918462437BD465DF8047B4F
:10A07000704700BF000C024400093D000090D0036F
:10A0800040787D01000000460024744C20BCBE4B8B
:10A090000024744A80B500AFFFF7D0FE0246084B9B
:10A0A0001B6A03F00F030749CB5C03F01F0322FA7E
:10A0B00003F3054A1360044B1B68184680BD00BFBC
:10A0C000000C024424EC08080001002080B500AF19
:10A0D000FFF7E0FF0246064B1B6A1B0903F007036C
:10A0E0000449CB5C03F01F0322FA03F3184680BD3A
:10A0F000000C024434EC080880B500AFFFF7CAFF3B
:10A100000246064B1B6A1B0A03F007030449CB5C9B
:10A1100003F01F0322FA03F3184680BD000C02442B
:10A1200034EC080880B500AFFFF7B4FF0246064BD9
:10A130001B6A1B0B03F007030449CB5C03F01F03EE
:10A1400022FA03F3184680BD000C024434EC0808E0
:10A1500080B48BB000AF7860AD4B5B6BC3F308038A
:10A160003B62AB4B9B6A03F00303FB61A84B9B6A0A
:10A170001B0A03F03F03BB61A54B9B6A03F010036E
:10A180007B61A34B9B6BDB08C3F30C037A6902FB77
:10A1900003F307EE903AF8EE677AC7ED047ABB69ED
:10A1A000002B00F02681FB69032B53D0FB69032BA6
:10A1B0006FD8FB69012B03D0FB69022B2BD068E021
:10A1C000934B1B68DB0803F00303924A22FA03F364
:10A1D000FB60FB6807EE903AF8EE676ABB6907EE32
:10A1E000903AF8EE677A86EEA77A3B6A07EE903AE5
:10A1F000F8EE676A97ED046ADFED875AC6EE257AB6
:10A2000076EEA77AF7EE006A77EEA67A67EE277AFF
:10A21000C7ED097A68E0BB6907EE903AF8EE677A15
:10A22000DFED7E6A86EEA77A3B6A07EE903AF8EE9B
:10A23000676A97ED046ADFED785AC6EE257A76EE06
:10A24000A77AF7EE006A77EEA67A67EE277AC7ED6F
:10A25000097A49E0BB6907EE903AF8EE677ADFEDDC
:10A26000706A86EEA77A3B6A07EE903AF8EE676A64
:10A2700097ED046ADFED685AC6EE257A76EEA77A86
:10A28000F7EE006A77EEA67A67EE277AC7ED097ACD
:10A290002AE05F4B1B68DB0803F003035D4A22FAE8
:10A2A00003F3FB60FB6807EE903AF8EE676ABB6960
:10A2B00007EE903AF8EE677A86EEA77A3B6A07EEE9
:10A2C000903AF8EE676A97ED046ADFED535AC6EEEE
:10A2D000257A76EEA77AF7EE006A77EEA67A67EE31
:10A2E000277AC7ED097A00BF494B1B6803F000735A
:10A2F000B3F1007F21D1464B9B6A03F48033002BDE
:10A3000017D0434B5B6B5B0A03F07F0307EE903A79
:10A31000F8EE677AB7EE007A37EE877AD7ED096AFA
:10A32000C6EE877AFCEEE77A17EE902A7B681A6011
:10A3300006E07B6800221A6002E07B6800221A6057
:10A34000334B1B6803F00073B3F1007F21D1304B16
:10A350009B6A03F40033002B17D02D4B5B6B1B0C57
:10A3600003F07F0307EE903AF8EE677AB7EE007AD3
:10A3700037EE877AD7ED096AC6EE877AFCEEE77A80
:10A3800017EE902A7B685A6006E07B6800225A60CC
:10A3900002E07B6800225A601D4B1B6803F00073CB
:10A3A000B3F1007F21D11A4B9B6A03F48023002B69
:10A3B00017D0174B5B6B1B0E03F07F0307EE903A31
:10A3C000F8EE677AB7EE007A37EE877AD7ED096A4A
:10A3D000C6EE877AFCEEE77A17EE902A7B689A60E1
:10A3E00010E07B6800229A600CE07B6800229A6093
:10A3F00008E07B6800221A607B6800225A607B6854
:10A4000000229A6000BF2C37BD465DF8047B704780
:10A41000000C02440090D003000000460024744A5F
:10A4200020BCBE4B80B48BB000AF78609D4BDB6B23
:10A43000C3F308033B629B4BDB6A03F00303FB613E
:10A44000984BDB6A1B0A03F03F03BB61954BDB6A49
:10A4500003F010037B61934B1B6CDB08C3F30C030D
:10A460007A6902FB03F307EE903AF8EE677AC7EDDC
:10A47000047ABB69002B00F00581FB69032B53D0E4
:10A48000FB69032B6FD8FB69012B03D0FB69022BFF
:10A490002BD068E0834B1B68DB0803F00303824A80
:10A4A00022FA03F3FB60FB6807EE903AF8EE676A66
:10A4B000BB6907EE903AF8EE677A86EEA77A3B6AB8
:10A4C00007EE903AF8EE676A97ED046ADFED775A87
:10A4D000C6EE257A76EEA77AF7EE006A77EEA67AD0
:10A4E00067EE277AC7ED097A68E0BB6907EE903A14
:10A4F000F8EE677ADFED6E6A86EEA77A3B6A07EEC2
:10A50000903AF8EE676A97ED046ADFED685AC6EE96
:10A51000257A76EEA77AF7EE006A77EEA67A67EEEE
:10A52000277AC7ED097A49E0BB6907EE903AF8EE61
:10A53000677ADFED606A86EEA77A3B6A07EE903AAB
:10A54000F8EE676A97ED046ADFED585AC6EE257A91
:10A5500076EEA77AF7EE006A77EEA67A67EE277AAC
:10A56000C7ED097A2AE04F4B1B68DB0803F00303B1
:10A570004D4A22FA03F3FB60FB6807EE903AF8EECF
:10A58000676ABB6907EE903AF8EE677A86EEA77ABB
:10A590003B6A07EE903AF8EE676A97ED046ADFEDE2
:10A5A000435AC6EE257A76EEA77AF7EE006A77EE82
:10A5B000A67A67EE277AC7ED097A00BF394BDB6AC6
:10A5C00003F48033002B17D0364BDB6B5B0A03F0B0
:10A5D0007F0307EE903AF8EE677AB7EE007A37EE2F
:10A5E000877AD7ED096AC6EE877AFCEEE77A17EE2E
:10A5F000902A7B681A6002E07B6800221A60294B6F
:10A60000DB6A03F40033002B17D0264BDB6B1B0CEB
:10A6100003F07F0307EE903AF8EE677AB7EE007A20
:10A6200037EE877AD7ED096AC6EE877AFCEEE77ACD
:10A6300017EE902A7B685A6002E07B6800225A601D
:10A64000184BDB6A03F48023002B17D0154BDB6B10
:10A650001B0E03F07F0307EE903AF8EE677AB7EE31
:10A66000007A37EE877AD7ED096AC6EE877AFCEE74
:10A67000E77A17EE902A7B689A600CE07B680022EC
:10A680009A6008E07B6800221A607B6800225A60AA
:10A690007B6800229A6000BF2C37BD465DF8047BC2
:10A6A000704700BF000C02440090D0030000004639
:10A6B0000024744A20BCBE4B80B48BB000AF7860DD
:10A6C0009D4B5B6CC3F308033B629B4B1B6B03F01E
:10A6D0000303FB61984B1B6B1B0A03F03F03BB6139
:10A6E000954B1B6B03F010037B61934B9B6CDB085A
:10A6F000C3F30C037A6902FB03F307EE903AF8EE1A
:10A70000677AC7ED047ABB69002B00F00581FB690D
:10A71000032B53D0FB69032B6FD8FB69012B03D0AC
:10A72000FB69022B2BD068E0834B1B68DB0803F02E
:10A730000303824A22FA03F3FB60FB6807EE903AB8
:10A74000F8EE676ABB6907EE903AF8EE677A86EE34
:10A75000A77A3B6A07EE903AF8EE676A97ED046ACB
:10A76000DFED775AC6EE257A76EEA77AF7EE006A25
:10A7700077EEA67A67EE277AC7ED097A68E0BB69BB
:10A7800007EE903AF8EE677ADFED6E6A86EEA77A0A
:10A790003B6A07EE903AF8EE676A97ED046ADFEDE0
:10A7A000685AC6EE257A76EEA77AF7EE006A77EE5B
:10A7B000A67A67EE277AC7ED097A49E0BB6907EE0A
:10A7C000903AF8EE677ADFED606A86EEA77A3B6A28
:10A7D00007EE903AF8EE676A97ED046ADFED585A93
:10A7E000C6EE257A76EEA77AF7EE006A77EEA67ABD
:10A7F00067EE277AC7ED097A2AE04F4B1B68DB0822
:10A8000003F003034D4A22FA03F3FB60FB6807EEF3
:10A81000903AF8EE676ABB6907EE903AF8EE677A0D
:10A8200086EEA77A3B6A07EE903AF8EE676A97EDF4
:10A83000046ADFED435AC6EE257A76EEA77AF7EE84
:10A84000006A77EEA67A67EE277AC7ED097A00BF2D
:10A85000394B1B6B03F48033002B17D0364B5B6CEA
:10A860005B0A03F07F0307EE903AF8EE677AB7EEE3
:10A87000007A37EE877AD7ED096AC6EE877AFCEE62
:10A88000E77A17EE902A7B681A6002E07B68002264
:10A890001A60294B1B6B03F40033002B17D0264B97
:10A8A0005B6C1B0C03F07F0307EE903AF8EE677ABF
:10A8B000B7EE007A37EE877AD7ED096AC6EE877A67
:10A8C000FCEEE77A17EE902A7B685A6002E07B681C
:10A8D00000225A60184B1B6B03F48023002B17D007
:10A8E000154B5B6C1B0E03F07F0307EE903AF8EEFE
:10A8F000677AB7EE007A37EE877AD7ED096AC6EE47
:10A90000877AFCEEE77A17EE902A7B689A600CE073
:10A910007B6800229A6008E07B6800221A607B68EE
:10A9200000225A607B6800229A6000BF2C37BD4627
:10A930005DF8047B704700BF000C02440090D00318
:10A94000000000460024744A20BCBE4B90B58FB076
:10A9500000AFC7E90001D7E9000100F17E442143BF
:10A9600050D1264BD3F8F03003F440733B63234BB4
:10A97000D3F8F03003F00203022B08D13B6BB3F5A0
:10A98000807F04D14FF400437B6302F02ABB1B4B52
:10A99000D3F8F03003F00063B3F1006F08D13B6BE4
:10A9A000B3F5007F04D14FF4FA437B6302F019BB87
:10A9B000124B1B6803F40033B3F5003F19D13B6B16
:10A9C000B3F5407F15D10D4BDB6903F47C53B3F530
:10A9D000007F0AD3094BDB691B0A03F03F03084AD7
:10A9E000B2FBF3F37B6302F0FCBA00237B6302F05B
:10A9F000F8BA00237B6302F0F4BA00BF000C0244F3
:10AA000040787D01D7E90001A1F5806450EA040196
:10AA100001F07582D7E90001012871F5806182F0AB
:10AA2000DD82D7E90001A1F5007450EA040101F0CC
:10AA30006C81D7E90001012871F5007182F0CE82A6
:10AA4000D7E90001A1F5807450EA040101F0028603
:10AA5000D7E90001012871F5807182F0BF82D7E942
:10AA60000001A1F1800450EA040101F04C85D7E90E
:10AA70000001012871F1800182F0B082D7E9000164
:10AA8000A1F1400450EA040101F09E84D7E90001DD
:10AA9000012871F1400182F0A182D7E90001A1F102
:10AAA000200450EA040101F0E883D7E900010128FD
:10AAB00071F1200182F09282D7E90001A1F1100426
:10AAC00050EA040102F05682D7E90001012871F131
:10AAD000100182F08382D7E90001A1F1080450EA55
:10AAE000040102F0CC81D7E90001012871F10801CD
:10AAF00082F07482D7E900010C1F50EA040101F0D2
:10AB00004886D7E90001012871F1040182F06682CC
:10AB1000D7E900018C1E50EA040102F04381D7E915
:10AB20000001012871F1020182F05882D7E9000189
:10AB30004C1E50EA040102F0CE80D7E90001012842
:10AB400071F1010182F04A82D7E9000100F100446D
:10AB5000214302F05980D7E90001D94CA04271F19C
:10AB6000000182F03B82D7E9000100F1404421431B
:10AB700001F0D987D7E90001D24CA04271F1000160
:10AB800082F02C82D7E9000100F16044214301F0FA
:10AB90005187D7E90001CC4CA04271F1000182F04D
:10ABA0001D82D7E9000100F17044214301F09A862B
:10ABB000D7E90001C54CA04271F1000182F00E827C
:10ABC000D7E9000100F17844214301F01286D7E96A
:10ABD0000001BF4CA04271F1000182F0FF81D7E972
:10ABE000000100F17C44214302F07E81D7E900019D
:10ABF000B84CA04271F1000182F0F081D7E9000168
:10AC0000A0F50004214300F09E82D7E90001B24C78
:10AC1000A04271F1000182F0E181D7E90001A0F5C5
:10AC20008004214300F06D82D7E90001AB4CA042C3
:10AC300071F1000182F0D281D7E90001A0F5001482
:10AC4000214301F00D80D7E90001A54CA04271F12C
:10AC5000000182F0C381D7E90001A0F580142143EF
:10AC600000F0D081D7E900019E4CA04271F10001B3
:10AC700082F0B481D7E90001A0F50024214300F05F
:10AC80004281D7E90001984CA04271F1000182F0A5
:10AC9000A581D7E90001A0F58024214301F04E826F
:10ACA000D7E90001914CA04271F1000182F0968138
:10ACB000D7E90001A0F50034214301F09781D7E9DD
:10ACC00000018B4CA04271F1000182F08781D7E92D
:10ACD0000001A0F58034214301F05481D7E900013F
:10ACE000B0F1011F71F1000182F07881D7E9000114
:10ACF000A0F50044214301F0B780D7E9000148F2F4
:10AD00000104A04271F1000182F06881D7E90001DD
:10AD1000A0F58044214301F06480D7E9000144F2AA
:10AD20000104A04271F1000182F05881D7E90001CD
:10AD3000A0F50054214301F01180D7E9000142F24F
:10AD40000104A04271F1000182F04881D7E90001BD
:10AD5000A0F58054214300F01E87D7E9000141F29D
:10AD60000104A04271F1000182F03881D7E90001AD
:10AD7000A0F50064214300F0A886D7E9000140F661
:10AD80000104A04271F1000182F02881D7E900019D
:10AD9000A0F58064214300F03286D7E9000140F23B
:10ADA0000144A04271F1000182F01881D7E900014D
:10ADB000A0F50074214300F0B085D7E9000140F20E
:10ADC0000124A04271F1000182F00881D7E900015D
:10ADD000A0F58074214300F03585D7E9000140F2E9
:10ADE0000114A04271F1000182F0F880D7E900015E
:10ADF000A0F18004214300F0BA84D7E90001812842
:10AE000071F1000182F0EA80D7E90001212871F197
:10AE100000016FD2D7E90001014302F0DF80D7E9DA
:10AE20000001421E41F1FF33202A73F1000182F03C
:10AE3000D5801F2A02F2D28001A151F822F000BF72
:10AE4000A1B108086DB20808DDCF08082DB30808C5
:10AE5000DDCF0808DDCF0808DDCF0808FDB30808FE
:10AE6000DDCF0808DDCF0808DDCF0808DDCF0808F2
:10AE7000DDCF0808DDCF0808DDCF0808DFB40808FB
:10AE8000DDCF0808DDCF0808DDCF0808DDCF0808D2
:10AE9000DDCF0808DDCF0808DDCF0808DDCF0808C2
:10AEA000DDCF0808DDCF0808DDCF0808DDCF0808B2
:10AEB000DDCF0808DDCF0808DDCF0808B5B50808E4
:10AEC000010000800100004001000020010000108E
:10AED00001000008010000040100800001004000A2
:10AEE0000100200001001000010008000100040022
:10AEF00001000200D7E90023A2F140010B4300F05A
:10AF0000C48302F06BB8A14BD3F8E83003F4E0231C
:10AF10003B633B6BB3F5802F36D03B6BB3F5802F93
:10AF20006BD83B6BB3F5403F2BD03B6BB3F5403F49
:10AF300063D83B6BB3F5003F1BD03B6BB3F5003FD1
:10AF40005BD83B6B002B04D03B6BB3F5803F08D044
:10AF500053E007F120031846FFF7FAF87B6A7B639A
:10AF60004EE007F114031846FFF75CFA7B697B6338
:10AF700046E007F108031846FFF79EFBBB687B63BA
:10AF80003EE0834B7B633BE0804BD3F8E83003F03B
:10AF90004043FB627D4B1B6803F00203022B0CD184
:10AFA000FB6A002B09D1794B1B68DB0803F0030314
:10AFB000784A22FA03F37B631EE0744B1B6803F4A8
:10AFC0000073B3F5007F06D1FB6AB3F1804F02D165
:10AFD000714B7B6310E06D4B1B6803F40033B3F5DA
:10AFE000003F06D1FB6AB3F1004F02D16B4B7B638C
:10AFF00002E000237B6303E002E000237B6300BFE9
:10B0000001F0EFBF614BD3F8E83003F460133B630A
:10B010003B6BB3F5001F36D03B6BB3F5001F6BD80D
:10B020003B6BB3F5C01F2BD03B6BB3F5C01F63D890
:10B030003B6BB3F5801F1BD03B6BB3F5801F5BD818
:10B040003B6B002B04D03B6BB3F5002F08D053E0D3
:10B0500007F120031846FFF77BF87B6A7B634EE01D
:10B0600007F114031846FFF7DDF97B697B6346E0BF
:10B0700007F108031846FFF71FFBBB687B633EE040
:10B08000434B7B633BE0414BD3F8E83003F0404354
:10B09000FB623E4B1B6803F00203022B0CD1FB6AE0
:10B0A000002B09D1394B1B68DB0803F00303394A35
:10B0B00022FA03F37B631EE0344B1B6803F4007336
:10B0C000B3F5007F06D1FB6AB3F1804F02D1324B5A
:10B0D0007B6310E02D4B1B6803F40033B3F5003F96
:10B0E00006D1FB6AB3F1004F02D12C4B7B6302E027
:10B0F00000237B6303E002E000237B6300BF01F0D9
:10B1000070BF224BD3F8E43003F040033B633B6B4A
:10B11000002B08D107F120031846FFF719F87B6AC6
:10B120007B6301F05EBF3B6B402B08D107F114033A
:10B130001846FFF777F9FB697B6301F052BF0023E4
:10B140007B6301F04EBF114BD3F8E43003F0800372
:10B150003B633B6B002B08D107F120031846FEF739
:10B16000F7FF7B6A7B6301F03CBF3B6B802B08D110
:10B1700007F114031846FFF755F9FB697B6301F0EB
:10B1800030BF00237B6301F02CBF00BF000C0244E2
:10B190000080BB000090D00300093D0040787D0195
:10B1A0009D4BD3F8D83003F007033B633B6B002B78
:10B1B00004D1FEF7A1FF786301F013BF964B1B6823
:10B1C00003F00063B3F1006F0AD13B6B012B07D191
:10B1D00007F114031846FFF725F9BB697B6343E0C9
:10B1E0008D4B1B6803F00053B3F1005F0AD13B6B3A
:10B1F000022B07D107F108031846FFF75DFAFB6839
:10B200007B6331E0844B1B6803F00203022B0CD1FB
:10B210003B6B032B09D1804B1B68DB0803F0030356
:10B220007E4A22FA03F37B631EE07B4B1B6803F428
:10B230000073B3F5007F05D13B6B042B02D1784B33
:10B240007B6311E0744BD3F8F03003F00203022B60
:10B2500006D13B6B052B03D14FF400437B6303E026
:10B2600000237B6301F0BDBE01F0BBBE6A4BD3F887
:10B27000D83003F038033B633B6B002B04D1FEF75F
:10B2800025FF786301F0ADBE634B1B6803F00063DC
:10B29000B3F1006F0AD13B6B082B07D107F1140300
:10B2A0001846FFF7BFF8BB697B633DE03B6B102B93
:10B2B00008D107F108031846FFF7FEF9FB687B6326
:10B2C00001F08FBE544B1B6803F00203022B0CD11C
:10B2D0003B6B182B09D1504B1B68DB0803F00303B1
:10B2E0004E4A22FA03F37B631EE04B4B1B6803F4C8
:10B2F0000073B3F5007F05D13B6B202B02D1484B87
:10B300007B6311E0444BD3F8F03003F00203022BCF
:10B3100006D13B6B282B03D14FF400437B6303E042
:10B3200000237B6301F05DBE01F05BBE3A4BD3F8B6
:10B33000D83003F4E0733B633B6B002B04D1FEF782
:10B34000C5FE786301F04DBE334B1B6803F000630C
:10B35000B3F1006F0AD13B6B402B07D107F1140307
:10B360001846FFF75FF8BB697B6345E02A4B1B6813
:10B3700003F00053B3F1005F0AD13B6B802B07D180
:10B3800007F108031846FFF797F9FB687B6333E082
:10B39000214B1B6803F00203022B0CD13B6BC02B2B
:10B3A00009D11D4B1B68DB0803F003031B4A22FA7B
:10B3B00003F37B6320E0184B1B6803F40073B3F5C1
:10B3C000007F06D13B6BB3F5807F02D1144B7B63CA
:10B3D00012E0114BD3F8F03003F00203022B07D137
:10B3E0003B6BB3F5A07F03D14FF400437B6303E0D5
:10B3F00000237B6301F0F5BD01F0F3BD064BD3F8EC
:10B40000D83003F460633B633B6B002B0AD1FEF73B
:10B410005DFE786301F0E5BD000C02440090D003AE
:10B4200000093D00A04B1B6803F00063B3F1006FFF
:10B430000BD13B6BB3F5007F07D107F1140318461E
:10B44000FEF7F0FFBB697B6347E0974B1B6803F097
:10B450000053B3F1005F0BD13B6BB3F5806F07D1A5
:10B4600007F108031846FFF727F9FB687B6334E010
:10B470008D4B1B6803F00203022B0DD13B6BB3F520
:10B48000C06F09D1884B1B68DB0803F00303874AB0
:10B4900022FA03F37B6320E0834B1B6803F4007301
:10B4A000B3F5007F06D13B6BB3F5006F02D1804B43
:10B4B0007B6312E07C4BD3F8F03003F00203022BE5
:10B4C00007D13B6BB3F5206F03D14FF400437B638F
:10B4D00003E000237B6301F084BD01F082BD724B69
:10B4E000D3F8D83003F4E0433B633B6B002B04D12B
:10B4F000FEF7ECFD786301F074BD6B4B1B6803F045
:10B500000063B3F1006F0BD13B6BB3F5805F07D1E4
:10B5100007F114031846FEF785FFBB697B6347E01C
:10B52000614B1B6803F00053B3F1005F0BD13B6B21
:10B53000B3F5005F07D107F108031846FFF7BCF821
:10B54000FB687B6334E0584B1B6803F00203022B5B
:10B550000DD13B6BB3F5405F09D1534B1B68DB0842
:10B5600003F00303514A22FA03F37B6320E04E4BBE
:10B570001B6803F40073B3F5007F06D13B6BB3F592
:10B58000804F02D14A4B7B6312E0474BD3F8F03037
:10B5900003F00203022B07D13B6BB3F5A04F03D19D
:10B5A0004FF400437B6303E000237B6301F019BD8C
:10B5B00001F017BD3C4BD3F8D83003F460333B6344
:10B5C0003B6B002B04D1FEF781FD786301F009BDD0
:10B5D000354B1B6803F00063B3F1006F0BD13B6B7D
:10B5E000B3F5004F07D107F114031846FEF71AFF11
:10B5F000BB697B6347E02C4B1B6803F00053B3F13E
:10B60000005F0BD13B6BB3F5803F07D107F1080317
:10B610001846FFF751F8FB687B6334E0224B1B6848
:10B6200003F00203022B0DD13B6BB3F5C03F09D1F0
:10B630001D4B1B68DB0803F003031C4A22FA03F3CB
:10B640007B6320E0184B1B6803F40073B3F5007FA5
:10B6500006D13B6BB3F5003F02D1154B7B6312E083
:10B66000114BD3F8F03003F00203022B07D13B6BF0
:10B67000B3F5203F03D14FF400437B6303E0002385
:10B680007B6301F0AEBC01F0ACBC074BD3F8D83003
:10B6900003F4E0133B633B6B002B0BD1FEF716FD6D
:10B6A000786301F09EBC00BF000C02440090D00300
:10B6B00000093D00A04B1B6803F00063B3F1006F6D
:10B6C0000BD13B6BB3F5802F07D107F1140318465C
:10B6D000FEF7A8FEBB697B6347E0974B1B6803F04E
:10B6E0000053B3F1005F0BD13B6BB3F5002F07D1D3
:10B6F00007F108031846FEF7DFFFFB687B6334E0C1
:10B700008D4B1B6803F00203022B0DD13B6BB3F58D
:10B71000402F09D1884B1B68DB0803F00303874ADD
:10B7200022FA03F37B6320E0834B1B6803F400736E
:10B73000B3F5007F06D13B6BB3F5801F02D1804B80
:10B740007B6312E07C4BD3F8F03003F00203022B52
:10B7500007D13B6BB3F5A01F03D14FF400437B63CC
:10B7600003E000237B6301F03CBC01F03ABC724B68
:10B77000D3F8D83003F460033B633B6B002B04D158
:10B78000FEF7A4FC786301F02CBC6B4B1B6803F044
:10B790000063B3F1006F0BD13B6BB3F5001F07D112
:10B7A00007F114031846FEF73DFEBB697B6347E0D3
:10B7B000614B1B6803F00053B3F1005F0BD13B6B8F
:10B7C000B3F5800F07D107F108031846FEF774FFA1
:10B7D000FB687B6334E0584B1B6803F00203022BC9
:10B7E0000DD13B6BB3F5C00F09D1534B1B68DB0880
:10B7F00003F00303514A22FA03F37B6320E04E4B2C
:10B800001B6803F40073B3F5007F06D13B6BB3F5FF
:10B81000000F02D14A4B7B6312E0474BD3F8F03064
:10B8200003F00203022B07D13B6BB3F5200F03D1CA
:10B830004FF400437B6303E000237B6301F0D1BB43
:10B8400001F0CFBB3C4BD3F8D83003F0E0633B634F
:10B850003B6B002B04D1FEF739FC786301F0C1BBD0
:10B86000354B1B6803F00063B3F1006F0BD13B6BEA
:10B87000B3F1807F07D107F114031846FEF7D2FD1C
:10B88000BB697B6347E02C4B1B6803F00053B3F1AB
:10B89000005F0BD13B6BB3F1007F07D107F10803C9
:10B8A0001846FEF709FFFB687B6334E0224B1B68F8
:10B8B00003F00203022B0DD13B6BB3F1407F09D1A2
:10B8C0001D4B1B68DB0803F003031C4A22FA03F339
:10B8D0007B6320E0184B1B6803F40073B3F5007F13
:10B8E00006D13B6BB3F1806F02D1154B7B6312E045
:10B8F000114BD3F8F03003F00203022B07D13B6B5E
:10B90000B3F1A06F03D14FF400437B6303E0002346
:10B910007B6301F066BB01F064BB074BD3F8D83002
:10B9200003F060533B633B6B002B0BD1FEF7CEFB68
:10B93000786301F056BB00BF000C02440090D003B6
:10B9400000093D00A14B1B6803F00063B3F1006FD9
:10B950000BD13B6BB3F1006F07D107F1140318460D
:10B96000FEF760FDBB697B6347E0984B1B6803F003
:10B970000053B3F1005F0BD13B6BB3F1805F07D194
:10B9800007F108031846FEF797FEFB687B6334E077
:10B990008E4B1B6803F00203022B0DD13B6BB3F1FE
:10B9A000C05F09D1894B1B68DB0803F00303884A99
:10B9B00022FA03F37B6320E0844B1B6803F40073DB
:10B9C000B3F5007F06D13B6BB3F1005F02D1814B31
:10B9D0007B6312E07D4BD3F8F03003F00203022BBF
:10B9E00007D13B6BB3F1205F03D14FF400437B637E
:10B9F00003E000237B6301F0F4BA01F0F2BA734B69
:10BA0000D3F8DC3003F007033B633B6B002B04D11E
:10BA1000FEF75CFB786301F0E4BA6C4B1B6803F043
:10BA20000063B3F1006F0AD13B6B012B07D107F123
:10BA300014031846FEF7F6FCBB697B6343E0634BD7
:10BA40001B6803F00053B3F1005F0AD13B6B022B7C
:10BA500007D107F108031846FEF72EFEFB687B634B
:10BA600031E05A4B1B6803F00203022B0CD13B6BF5
:10BA7000032B09D1554B1B68DB0803F00303544A21
:10BA800022FA03F37B631EE0504B1B6803F4007340
:10BA9000B3F5007F05D13B6B042B02D14D4B7B638B
:10BAA00011E04A4BD3F8F03003F00203022B06D129
:10BAB0003B6B052B03D14FF400437B6303E0002372
:10BAC0007B6301F08EBA01F08CBA404BD3F8DC30C6
:10BAD00003F070033B633B6B002B04D1FEF7F6FAD7
:10BAE000786301F07EBA394B1B6803F00063B3F151
:10BAF000006F0AD13B6B102B07D107F114031846D6
:10BB0000FEF790FCBB697B6343E0304B1B6803F09E
:10BB10000053B3F1005F0AD13B6B202B07D107F133
:10BB200008031846FEF7C8FDFB687B6331E0274B2E
:10BB30001B6803F00203022B0CD13B6B302B09D1A5
:10BB4000224B1B68DB0803F00303214A22FA03F3AC
:10BB50007B631EE01D4B1B6803F40073B3F5007F8D
:10BB600005D13B6B402B02D11A4B7B6311E0174B85
:10BB7000D3F8F03003F00203022B06D13B6B502BBD
:10BB800003D14FF400437B6303E000237B6301F0A8
:10BB900028BA01F026BA0D4BD3F8E03003F0E06389
:10BBA0003B633B6B002B04D1FEF7BCFA786301F0DA
:10BBB00018BA3B6BB3F1807F0ED107F1140318461E
:10BBC000FEF730FCBB697B6301F00BBA000C02444A
:10BBD0000090D00300093D003B6BB3F1007F08D11A
:10BBE00007F108031846FEF767FDFB687B6301F069
:10BBF000F8B9A44B1B6803F00203022B0DD13B6B79
:10BC0000B3F1407F09D19F4B1B68DB0803F00303AE
:10BC10009D4A22FA03F37B6320E09A4B1B6803F4EE
:10BC20000073B3F5007F06D13B6BB3F1806F02D197
:10BC3000964B7B6312E0934BD3F8F03003F0020392
:10BC4000022B07D13B6BB3F1A06F03D14FF400433C
:10BC50007B6303E000237B6301F0C3B901F0C1B94A
:10BC6000884BD3F8E83003F007033B633B6B002BB2
:10BC700004D1FEF70FFA786301F0B3B93B6B012BE7
:10BC800004D1FEF7DBF8786301F0ABB93B6B022B14
:10BC900008D107F114031846FEF7C4FBFB697B6368
:10BCA00001F09FB9774B1B6803F40033B3F5003FF5
:10BCB00005D13B6B032B02D1754B7B6323E0714BAA
:10BCC0001B6803F00203022B0CD13B6B042B09D140
:10BCD0006C4B1B68DB0803F003036B4A22FA03F387
:10BCE0007B6310E0674B1B6803F40073B3F5007FC0
:10BCF00005D13B6B052B02D1644B7B6303E0002332
:10BD00007B6301F06EB901F06CB95E4BD3F8E8309B
:10BD100003F008033B635B4BD3F8F03003F00203FE
:10BD2000022B06D13B6B002B03D14FF400437B6306
:10BD300012E0544BD3F8F03003F00063B3F1006F1E
:10BD400006D13B6B082B03D14FF4FA437B6303E02E
:10BD500000237B6301F045B901F043B9494BD3F8A7
:10BD6000E43003F440333B633B6B002B04D1FEF71C
:10BD7000ADF9786301F035B93B6BB3F5803F08D17D
:10BD800007F108031846FEF797FC3B697B6301F057
:10BD900028B93C4B1B6803F00203022B0DD13B6B0F
:10BDA000B3F5003F09D1374B1B68DB0803F00303F1
:10BDB000354A22FA03F37B6311E0324B1B6803F42C
:10BDC0000073B3F5007F06D13B6BB3F5403F02D162
:10BDD0002E4B7B6303E000237B6301F002B901F08B
:10BDE00000B9284BD3F8E43003F440233B633B6BAA
:10BDF000002B04D1FEF76AF9786301F0F2B83B6BCF
:10BE0000B3F5802F08D107F108031846FEF754FC5C
:10BE10003B697B6301F0E5B81A4B1B6803F0020332
:10BE2000022B0DD13B6BB3F5002F09D1154B1B68CD
:10BE3000DB0803F00303144A22FA03F37B6311E0E7
:10BE4000104B1B6803F40073B3F5007F06D13B6B06
:10BE5000B3F5402F02D10D4B7B6303E000237B63DE
:10BE600001F0BFB801F0BDB8064BD3F8E43003F4DD
:10BE700040133B633B6B002B0CD1FEF753F9786307
:10BE800001F0AFB8000C02440090D00300093D005F
:10BE900040787D013B6BB3F5801F08D107F10803A3
:10BEA0001846FEF709FC3B697B6301F09AB89F4B8B
:10BEB0001B6803F00203022B0DD13B6BB3F5001F8F
:10BEC00009D19A4B1B68DB0803F00303984A22FA56
:10BED00003F37B6311E0954B1B6803F40073B3F528
:10BEE000007F06D13B6BB3F5401F02D1914B7B63C2
:10BEF00003E000237B6301F074B801F072B88B4B50
:10BF0000D3F8E43003F440033B633B6B002B04D1D4
:10BF1000FEF708F9786301F064B83B6BB3F5800F66
:10BF200008D107F108031846FEF7C6FB3B697B639F
:10BF300001F057B87D4B1B6803F00203022B0DD1B3
:10BF40003B6BB3F5000F09D1784B1B68DB0803F09E
:10BF50000303774A22FA03F37B6311E0734B1B68F8
:10BF600003F40073B3F5007F06D13B6BB3F5400FCC
:10BF700002D1704B7B6303E000237B6301F031B897
:10BF800001F02FB8694BD3F8E43003F040733B6302
:10BF90003B6B002B04D1FEF799F8786301F021B8D0
:10BFA0003B6BB3F1807F08D107F108031846FEF719
:10BFB00083FB3B697B6301F014B85C4B1B6803F0A7
:10BFC0000203022B0ED13B6BB3F1007F0AD1574B1A
:10BFD0001B68DB0803F00303554A22FA03F37B6373
:10BFE00000F0FFBF00237B6300F0FBBF4F4BD3F893
:10BFF000DC3003F4E0633B633B6BB3F5A06F56D0DA
:10C000003B6BB3F5A06F00F28B803B6BB3F5806F99
:10C010003ED03B6BB3F5806F00F282803B6BB3F593
:10C02000407F27D03B6BB3F5407F79D83B6BB3F5AE
:10C03000007F17D03B6BB3F5007F71D83B6B002BB3
:10C0400004D03B6BB3F5807F04D069E0FEF76AF85B
:10C05000786368E007F114031846FEF7E3F97B699B
:10C060007B6360E007F108031846FEF725FB3B6998
:10C070007B6358E02D4BD3F8F03003F00203022B22
:10C0800003D14FF400437B634DE000237B634AE020
:10C09000264BD3F8F03003F00063B3F1006F03D107
:10C0A0004FF4FA437B633EE000237B633BE01F4B8E
:10C0B000D3F8E83003F04043FB621C4B1B6803F0ED
:10C0C0000203022B0CD1FB6A002B09D1174B1B6812
:10C0D000DB0803F00303164A22FA03F37B631EE036
:10C0E000124B1B6803F40073B3F5007F06D1FB6AA3
:10C0F000B3F1804F02D10F4B7B6310E00B4B1B68F9
:10C1000003F40033B3F5003F06D1FB6AB3F1004FEF
:10C1100002D1094B7B6302E000237B6303E002E072
:10C1200000237B6300BF00F05CBF00BF000C024433
:10C130000090D00300093D0040787D019E4BD3F86C
:10C14000DC3003F4E0433B633B6BB3F5A04F56D0C8
:10C150003B6BB3F5A04F00F28B803B6BB3F5804F88
:10C160003ED03B6BB3F5804F00F282803B6BB3F562
:10C17000405F27D03B6BB3F5405F79D83B6BB3F59D
:10C18000005F17D03B6BB3F5005F71D83B6B002BA2
:10C1900004D03B6BB3F5805F04D069E0FDF796FFF8
:10C1A000786368E007F114031846FEF73BF97B69F2
:10C1B0007B6360E007F108031846FEF77DFA3B69F0
:10C1C0007B6358E07C4BD3F8F03003F00203022B82
:10C1D00003D14FF400437B634DE000237B634AE0CF
:10C1E000754BD3F8F03003F00063B3F1006F03D167
:10C1F0004FF4FA437B633EE000237B633BE06E4BEE
:10C20000D3F8E83003F04043FB626B4B1B6803F04C
:10C210000203022B0CD1FB6A002B09D1664B1B6871
:10C22000DB0803F00303654A22FA03F37B631EE095
:10C23000614B1B6803F40073B3F5007F06D1FB6A02
:10C24000B3F1804F02D15E4B7B6310E05A4B1B6809
:10C2500003F40033B3F5003F06D1FB6AB3F1004F9E
:10C2600002D1584B7B6302E000237B6303E002E0D2
:10C2700000237B6300BF00F0B4BE4F4BD3F8DC302B
:10C2800003F4E0233B633B6BB3F5A02F56D03B6B2D
:10C29000B3F5A02F00F28B803B6BB3F5802F3ED01F
:10C2A0003B6BB3F5802F00F282803B6BB3F5403FD0
:10C2B00027D03B6BB3F5403F79D83B6BB3F5003FDC
:10C2C00017D03B6BB3F5003F71D83B6B002B04D00C
:10C2D0003B6BB3F5803F04D069E0FDF723FF786343
:10C2E00068E007F114031846FEF79CF87B697B634E
:10C2F00060E007F108031846FEF7DEF93B697B634F
:10C3000058E02D4BD3F8F03003F00203022B03D199
:10C310004FF400437B634DE000237B634AE0264BF0
:10C32000D3F8F03003F00063B3F1006F03D14FF4A2
:10C33000FA437B633EE000237B633BE01E4BD3F874
:10C34000E83003F04043FB621B4B1B6803F0020321
:10C35000022B0CD1FB6A002B09D1174B1B68DB08A1
:10C3600003F00303154A22FA03F37B631EE0124B2A
:10C370001B6803F40073B3F5007F06D1FB6AB3F1C9
:10C38000804F02D10E4B7B6310E00B4B1B6803F414
:10C390000033B3F5003F06D1FB6AB3F1004F02D181
:10C3A000084B7B6302E000237B6303E002E0002391
:10C3B0007B6300BF00F015BE000C02440090D00368
:10C3C00000093D0040787D019E4BD3F8DC3003F43A
:10C3D000E0033B633B6BB3F5A00F56D03B6BB3F56B
:10C3E000A00F00F28B803B6BB3F5800F3ED03B6B10
:10C3F000B3F5800F00F282803B6BB3F5401F27D06E
:10C400003B6BB3F5401F79D83B6BB3F5001F17D0DA
:10C410003B6BB3F5001F71D83B6B002B04D03B6B1B
:10C42000B3F5801F04D069E0FDF77CFE786368E017
:10C4300007F114031846FDF7F5FF7B697B6360E0A5
:10C4400007F108031846FEF737F93B697B6358E0AC
:10C450007C4BD3F8F03003F00203022B03D14FF4EE
:10C4600000437B634DE000237B634AE0754BD3F8C8
:10C47000F03003F00063B3F1006F03D14FF4FA43DF
:10C480007B633EE000237B633BE06E4BD3F8E830F8
:10C4900003F04043FB626B4B1B6803F00203022B6B
:10C4A0000CD1FB6A002B09D1664B1B68DB0803F03B
:10C4B0000303654A22FA03F37B631EE0614B1B68AA
:10C4C00003F40073B3F5007F06D1FB6AB3F1804F2C
:10C4D00002D15E4B7B6310E05A4B1B6803F40033C0
:10C4E000B3F5003F06D1FB6AB3F1004F02D1584BC0
:10C4F0007B6302E000237B6303E002E000237B63B5
:10C5000000BF00F06EBD4F4BD3F8DC3003F0E063AA
:10C510003B633B6BB3F1A06F56D03B6BB3F1A06FA5
:10C5200000F28B803B6BB3F1806F3ED03B6BB3F17D
:10C53000806F00F282803B6BB3F1407F27D03B6B72
:10C54000B3F1407F79D83B6BB3F1007F17D03B6BE1
:10C55000B3F1007F71D83B6B002B04D03B6BB3F180
:10C56000807F04D069E0FDF7DDFD786368E007F1C6
:10C5700014031846FDF756FF7B697B6360E007F103
:10C5800008031846FEF798F83B697B6358E02D4B8B
:10C59000D3F8F03003F00203022B03D14FF4004331
:10C5A0007B634DE000237B634AE0264BD3F8F030F9
:10C5B00003F00063B3F1006F03D14FF4FA437B63E0
:10C5C0003EE000237B633BE01E4BD3F8E83003F0F2
:10C5D0004043FB621B4B1B6803F00203022B0CD190
:10C5E000FB6A002B09D1174B1B68DB0803F0030320
:10C5F000154A22FA03F37B631EE0124B1B6803F417
:10C600000073B3F5007F06D1FB6AB3F1804F02D10E
:10C610000E4B7B6310E00B4B1B6803F40033B3F548
:10C62000003F06D1FB6AB3F1004F02D1084B7B6398
:10C6300002E000237B6303E002E000237B6300BF92
:10C6400000F0CFBC000C02440090D00300093D0074
:10C6500040787D019E4BD3F8DC3003F0E0433B6330
:10C660003B6BB3F1A04F56D03B6BB3F1A04F00F240
:10C670008B803B6BB3F1804F3ED03B6BB3F1804F6F
:10C6800000F282803B6BB3F1405F27D03B6BB3F18C
:10C69000405F79D83B6BB3F1005F17D03B6BB3F1D0
:10C6A000005F71D83B6B002B04D03B6BB3F1805F14
:10C6B00004D069E0FDF736FD786368E007F1140304
:10C6C0001846FDF7AFFE7B697B6360E007F1080366
:10C6D0001846FDF7F1FF3B697B6358E07C4BD3F8CC
:10C6E000F03003F00203022B03D14FF400437B63CD
:10C6F0004DE000237B634AE0754BD3F8F03003F044
:10C700000063B3F1006F03D14FF4FA437B633EE063
:10C7100000237B633BE06E4BD3F8E83003F04043EB
:10C72000FB626B4B1B6803F00203022B0CD1FB6A0C
:10C73000002B09D1664B1B68DB0803F00303654A35
:10C7400022FA03F37B631EE0614B1B6803F4007362
:10C75000B3F5007F06D1FB6AB3F1804F02D15E4B87
:10C760007B6310E05A4B1B6803F40033B3F5003FC2
:10C7700006D1FB6AB3F1004F02D1584B7B6302E054
:10C7800000237B6303E002E000237B6300BF00F033
:10C7900028BC4F4BD3F8E83003F440733B634C4B59
:10C7A0001B6803F40033B3F5003F06D13B6B002B4D
:10C7B00003D14A4B7B6300F014BC3B6BB3F5807F25
:10C7C00008D107F120031846FDF7C2FC7B6A7B63A2
:10C7D00000F007BC3B6BB3F5007F07D107F11403F2
:10C7E0001846FDF71FFEBB697B63FAE300237B63FA
:10C7F000F7E3374BD3F8E03003F007033B633B6BC1
:10C80000042B61D801A252F823F000BF21C8080808
:10C8100031C8080841C8080851C8080857C808089E
:10C8200007F120031846FDF793FC7B6A7B634EE01B
:10C8300007F114031846FDF7F5FD7B697B6346E0BD
:10C8400007F108031846FDF737FFBB687B633EE03E
:10C85000234B7B633BE01E4BD3F8E83003F04043AF
:10C86000FB621B4B1B6803F00203022B0CD1FB6A1B
:10C87000002B09D1164B1B68DB0803F00303154A94
:10C8800022FA03F37B631EE0114B1B6803F4007371
:10C89000B3F5007F06D1FB6AB3F1804F02D10E4B96
:10C8A0007B6310E00A4B1B6803F40033B3F5003FD1
:10C8B00006D1FB6AB3F1004F02D1084B7B6302E063
:10C8C00000237B6303E002E000237B6300BF88E377
:10C8D000000C02440090D00300093D0040787D0127
:10C8E0000080BB00A94BD3F8E03003F038033B6372
:10C8F0003B6B202B00F29A8001A252F823F000BF7C
:10C9000085C908082DCA08082DCA08082DCA0808B4
:10C910002DCA08082DCA08082DCA08082DCA0808FB
:10C9200095C908082DCA08082DCA08082DCA080884
:10C930002DCA08082DCA08082DCA08082DCA0808DB
:10C94000A5C908082DCA08082DCA08082DCA080854
:10C950002DCA08082DCA08082DCA08082DCA0808BB
:10C96000B5C908082DCA08082DCA08082DCA080824
:10C970002DCA08082DCA08082DCA08082DCA08089B
:10C98000BBC9080807F120031846FDF7E1FB7B6AE5
:10C990007B634EE007F114031846FDF743FD7B6906
:10C9A0007B6346E007F108031846FDF785FEBB6888
:10C9B0007B633EE0764B7B633BE0744BD3F8E8301F
:10C9C00003F04043FB62714B1B6803F00203022B30
:10C9D0000CD1FB6A002B09D16C4B1B68DB0803F000
:10C9E00003036C4A22FA03F37B631EE0674B1B6868
:10C9F00003F40073B3F5007F06D1FB6AB3F1804FF7
:10CA000002D1654B7B6310E0604B1B6803F400337D
:10CA1000B3F5003F06D1FB6AB3F1004F02D15F4B83
:10CA20007B6302E000237B6303E002E000237B637F
:10CA300000BFD6E2554BD3F8E03003F4E0733B631C
:10CA40003B6BB3F5807F31D03B6BB3F5807F66D80D
:10CA50003B6BC02B27D03B6BC02B60D83B6B802B34
:10CA600019D03B6B802B5AD83B6B002B03D03B6B10
:10CA7000402B08D053E007F120031846FDF768FB70
:10CA80007B6A7B634EE007F114031846FDF7CAFC8E
:10CA90007B697B6346E007F108031846FDF70CFE4F
:10CAA000BB687B633EE03A4B7B633BE0374BD3F89C
:10CAB000E83003F04043FB62344B1B6803F0020391
:10CAC000022B0CD1FB6A002B09D1304B1B68DB0811
:10CAD00003F003032F4A22FA03F37B631EE02B4B80
:10CAE0001B6803F40073B3F5007F06D1FB6AB3F152
:10CAF000804F02D1284B7B6310E0244B1B6803F46A
:10CB00000033B3F5003F06D1FB6AB3F1004F02D109
:10CB1000224B7B6302E000237B6303E002E00023FF
:10CB20007B6300BF5DE2194BD3F8E03003F4606330
:10CB30003B633B6B002B03D1FDF7DEFA786350E2D9
:10CB4000124B1B6803F00063B3F1006F0BD13B6B1A
:10CB5000B3F5007F07D107F114031846FDF762FC17
:10CB6000BB697B634FE0094B1B6803F00053B3F1D3
:10CB7000005F15D13B6BB3F5806F11D107F108034E
:10CB80001846FDF799FDFB687B633CE0000C02440E
:10CB90000080BB000090D00300093D0040787D017B
:10CBA000944B1B6803F00203022B0DD13B6BB3F5D2
:10CBB000C06F09D18F4B1B68DB0803F003038E4A5B
:10CBC00022FA03F37B631EE08A4B1B6803F40073B5
:10CBD000B3F5007F06D13B6BB3F5006F02D1874BF5
:10CBE0007B6310E0834B1B6803F40033B3F5003F15
:10CBF00006D13B6BB3F5206F02D1814B7B6302E022
:10CC000000237B63EDE1ECE17A4BD3F8E03003F4F1
:10CC1000E0433B633B6B002B03D1FDF783FA786362
:10CC2000DFE1744B1B6803F00063B3F1006F0BD1BD
:10CC30003B6BB3F5805F07D107F114031846FDF78E
:10CC4000F1FBBB697B6345E06A4B1B6803F0005353
:10CC5000B3F1005F0BD13B6BB3F5005F07D107F178
:10CC600008031846FDF728FDFB687B6332E0614B43
:10CC70001B6803F00203022B0DD13B6BB3F5405F41
:10CC800009D15C4B1B68DB0803F003035A4A22FA04
:10CC900003F37B631EE0574B1B6803F40073B3F58B
:10CCA000007F06D13B6BB3F5804F02D1534B7B63C2
:10CCB00010E0504B1B6803F40033B3F5003F06D17E
:10CCC0003B6BB3F5A04F02D14D4B7B6302E00023D9
:10CCD0007B6386E185E1474BD3F8E03003F46033B2
:10CCE0003B633B6B002B03D1FDF706FA786378E1D9
:10CCF000404B1B6803F00063B3F1006F0BD13B6B3B
:10CD0000B3F5004F07D107F114031846FDF78AFB6E
:10CD1000BB697B6345E0374B1B6803F00053B3F1FD
:10CD2000005F0BD13B6BB3F5803F07D107F10803E0
:10CD30001846FDF7C1FCFB687B6332E02D4B1B6896
:10CD400003F00203022B0DD13B6BB3F5C03F09D1B9
:10CD5000284B1B68DB0803F00303274A22FA03F37E
:10CD60007B631EE0234B1B6803F40073B3F5007F65
:10CD700006D13B6BB3F5003F02D1204B7B6310E043
:10CD80001C4B1B6803F40033B3F5003F06D13B6B2B
:10CD9000B3F5203F02D11A4B7B6302E000237B6393
:10CDA0001FE11EE1134BD3F8E43003F003033B63B0
:10CDB0003B6B032B5FD801A252F823F0CDCD0808BE
:10CDC000D5CD0808E5CD080805CE0808FDF762F9BD
:10CDD000786353E007F120031846FDF7B9F97B6A41
:10CDE0007B634BE007F114031846FDF71BFBFB695F
:10CDF0007B6343E0000C02440090D00300093D0037
:10CE000040787D01794BD3F8E83003F04043FB6272
:10CE1000764B1B6803F00203022B0CD1FB6A002B3C
:10CE200009D1724B1B68DB0803F00303704A22FA36
:10CE300003F37B631EE06D4B1B6803F40073B3F5D3
:10CE4000007F06D1FB6AB3F1804F02D1694B7B634F
:10CE500010E0664B1B6803F40033B3F5003F06D1C6
:10CE6000FB6AB3F1004F02D1634B7B6302E0002306
:10CE70007B6303E002E000237B6300BFB1E05B4B18
:10CE8000D3F8E83003F0C0033B63584BD3F8F030DD
:10CE900003F00203022B06D13B6B002B03D14FF4AE
:10CEA00000437B631FE0514BD3F8F03003F0006385
:10CEB000B3F1006F06D13B6B402B03D14FF4FA4323
:10CEC0007B6310E0494B1B6803F40073B3F5007FEC
:10CED00006D13B6B802B03D148F212037B6302E047
:10CEE00000237B637DE07CE0404BD3F8E83003F027
:10CEF00030033B633D4B1B6803F40053B3F5005F05
:10CF000005D13B6B002B02D13C4B7B6331E0374BAF
:10CF10001B6803F00073B3F1007F0AD13B6B102B49
:10CF200007D107F120031846FDF712F97B6A7B63EE
:10CF30001FE02E4BD3F8F03003F00203022B06D192
:10CF40003B6B202B03D14FF400437B6311E0274B55
:10CF5000D3F8F03003F00063B3F1006F06D13B6B00
:10CF6000302B03D14FF4FA437B6302E000237B6351
:10CF700037E036E01D4BD3F8E43003F030033B6379
:10CF80003B6B102B07D107F120031846FDF7E0F8A3
:10CF90007B6A7B6325E0154B1B6803F00053B3F1FC
:10CFA000005F0AD13B6B202B07D107F1080318461D
:10CFB000FDF782FBFB687B630FE00C4B1B6803F4FF
:10CFC0000053B3F5005F05D13B6B302B02D10B4B07
:10CFD0007B6302E000237B6303E002E000237B63CA
:10CFE00000BF7B6B18463C37BD4690BD000C024429
:10CFF0000090D00300093D0040787D01006CDC0208
:10D0000080B582B000AF78607B68002B01D101232E
:10D0100042E07B68D3F88830002B06D17B68002281
:10D0200083F88420786800F03BF87B682422C3F8FA
:10D0300088207B681B681A687B681B6822F00102E5
:10D040001A60786800F04EF90346012B01D10123E4
:10D0500022E07B689B6A002B02D0786800F030FBEE
:10D060007B681B685A687B681B6822F490425A6090
:10D070007B681B689A687B681B6822F02A029A60AA
:10D080007B681B681A687B681B6842F001021A60A3
:10D09000786800F0B7FB034618460837BD4680BDE8
:10D0A00080B483B000AF786000BF0C37BD465DF838
:10D0B000047B704780B58AB002AFF860B9603B600E
:10D0C0001346FB80FB68D3F88830202B40F0838028
:10D0D000BB68002B02D0FB88002B01D101237BE031
:10D0E000FB681B689B6803F08003802B07D1FB68FB
:10D0F0001B689A68FB681B6822F080029A60FB68D4
:10D100000022C3F89020FB682122C3F88820FCF796
:10D1100037FD7861FB68FA88A3F85420FB68FA8829
:10D12000A3F85620FB689B68B3F5805F08D1FB68C5
:10D130001B69002B04D10023FB61BB68BB6103E0CA
:10D14000BB68FB610023BB612CE03B6800937B69FB
:10D1500000228021F86800F0A3FB0346002B01D0D9
:10D16000032339E0FB69002B0BD1BB691B881A46EE
:10D17000FB681B68C2F308029A62BB690233BB6199
:10D1800007E0FB691A78FB681B689A62FB69013348
:10D19000FB61FB68B3F856309BB2013B9AB2FB6867
:10D1A000A3F85620FB68B3F856309BB2002BCCD1C5
:10D1B0003B6800937B6900224021F86800F070FB17
:10D1C0000346002B01D0032306E0FB682022C3F8AE
:10D1D0008820002300E0022318462037BD4680BD8A
:10D1E00080B58AB000AFF860B9601346FB80FB6879
:10D1F000D3F88C30202B4BD1BB68002B02D0FB889E
:10D20000002B01D1012344E0FB680022DA66FB68B1
:10D210001B689B6803F04003402B07D1FB681B6829
:10D220009A68FB681B6822F040029A60FB681B68E2
:10D230001A4A934224D0FB681B68194A93421FD0B4
:10D24000FB681B685B6803F40003002B18D0FB68C5
:10D250001B687B617B6953E8003F3B613B6943F09E
:10D2600080637B62FB681B681A467B6A3B62FA61DB
:10D27000F9693A6A41E80023BB61BB69002BE6D13A
:10D28000FB881A46B968F86800F0D2FB034600E054
:10D29000022318462837BD4680BD00BF0024004445
:10D2A0000024005480B483B000AF786000BF0C3716
:10D2B000BD465DF8047B704780B483B000AF7860F2
:10D2C00000BF0C37BD465DF8047B704780B483B067
:10D2D00000AF78600B467B8000BF0C37BD465DF821
:10D2E000047B70472DE9B04F94B000AFF862002383
:10D2F00087F84730FB6A1A68784B9A42FB6A9A684B
:10D30000FB6A1B691A43FB6A5B691A43FB6ADB69A8
:10D310001343FB64FB6A1B681B6871491940FB6A75
:10D320001A68FB6C0B431360FB6A1B685B6823F491
:10D330004050FB6AD968FB6A1A6840EA01035360EF
:10D34000FB6A9B69FB64FB6A1A68644B9A4209D0CA
:10D35000FB6A1A68634B9A4204D0FB6A1A6AFB6C38
:10D360001343FB64FB6A1B689B6823F06E4121F446
:10D370003061FB6A1A68FB6C0B439360FB6A1B68A5
:10D38000DB6A23F00F00FB6A596AFB6A1A6840EAFD
:10D390000103D362FB6A1A68534B9A4202D10123FC
:10D3A000BB6466E0FB6A1A68504B9A4202D10223C2
:10D3B000BB645EE0FB6A1A684D4B9A4202D10423BB
:10D3C000BB6456E0FB6A1A684A4B9A4202D10823B2
:10D3D000BB644EE0FB6A1A68474B9A4202D11023A5
:10D3E000BB6446E0FB6A1A68444B9A4202D1202390
:10D3F000BB643EE0FB6A1A68414B9A4202D140236B
:10D40000BB6436E0FB6A1A683E4B9A4202D1802325
:10D41000BB642EE0FB6A1A683B4B9A4203D14FF47F
:10D420008073BB6425E0FB6A1A68384B9A4203D1CB
:10D430004FF40073BB641CE0FB6A1A68344B9A42D9
:10D4400003D14FF48063BB6413E0FB6A1A68314B6D
:10D450009A4203D14FF40063BB640AE0FB6A1A6886
:10D460001E4B9A4203D14FF48053BB6401E000236A
:10D47000BB64FB6A1A68194B9A4205D0FB6A1A68AA
:10D48000184B9A4240F09480BB6C00223B627A6257
:10D49000D7E90801FDF75AFA38643B6C002B00F01D
:10D4A000F780FB6A5B6A1C4A32F813301A463B6C01
:10D4B000B3FBF2F37B63FB6A5A6813465B001344C9
:10D4C0007A6B9A4205D3FB6A5B681B037A6B9A42BC
:10D4D00024D9012387F8473069E000BF00240044C5
:10D4E000F369FFCF0024005400380140004400409D
:10D4F00000480040004C00400050004000640040E4
:10D5000000780040007C004000800040006800403F
:10D51000006C00400084004078EC08083B6C00225E
:10D52000BB61FA61FB6A5B6A644A32F813309BB2F2
:10D5300000223B617A61D7E90423D7E9060100F0B4
:10D54000FFFF02460B46104619464FF000024FF00F
:10D5500000030B0243EA10630202F96A49684908B2
:10D5600000200C46054612EB040843EB0509FB6A54
:10D570005B680022BB60FA60D7E902234046494657
:10D5800000F0DEFF02460B461346FB63FB6BB3F570
:10D59000407F08D3FB6BB3F5801F04D2FB6A1B6886
:10D5A000FA6BDA6003E0012387F8473070E06FE040
:10D5B000FB6ADB69B3F5004F3CD1BB6C00223B60DA
:10D5C0007A60D7E90001FDF7C1F938643B6C002BA4
:10D5D0005ED0FB6A5B6A394A32F813301A463B6CFC
:10D5E000B3FBF2F35A00FB6A5B685B081A44FB6A00
:10D5F0005B68B2FBF3F3FB63FB6B0F2B16D9FB6B82
:10D60000B3F5803F12D2FB6B9BB223F00F037B87F5
:10D61000FB6B5B089BB203F007039AB27B8F13434B
:10D620007B87FB6A1B687A8FDA6031E0012387F819
:10D6300047302DE0BB6C00229A469346504659462F
:10D64000FDF784F938643B6C002B21D0FB6A5B6AE0
:10D650001A4A32F813301A463B6CB3FBF2F2FB6AFB
:10D660005B685B081A44FB6A5B68B2FBF3F3FB631D
:10D67000FB6B0F2B09D9FB6BB3F5803F05D2FB6B1E
:10D680009AB2FB6A1B68DA6002E0012387F8473030
:10D69000FB6A0122A3F86A20FB6A0122A3F8682032
:10D6A000FB6A00225A67FB6A00229A6797F84730A4
:10D6B00018465037BD46BDE8B08F00BF78EC08086B
:10D6C00080B483B000AF78607B689B6A03F001038D
:10D6D000002B0AD07B681B685B6823F400317B68F1
:10D6E000DA6A7B681B680A435A607B689B6A03F0AE
:10D6F0000203002B0AD07B681B685B6823F480312F
:10D700007B681A6B7B681B680A435A607B689B6A5C
:10D7100003F00403002B0AD07B681B685B6823F4CA
:10D7200080217B685A6B7B681B680A435A607B6860
:10D730009B6A03F00803002B0AD07B681B685B68B8
:10D7400023F400417B689A6B7B681B680A435A602C
:10D750007B689B6A03F01003002B0AD07B681B6870
:10D760009B6823F480517B68DA6B7B681B680A43F3
:10D770009A607B689B6A03F02003002B0AD07B68C9
:10D780001B689B6823F400517B681A6C7B681B68DC
:10D790000A439A607B689B6A03F04003002B1AD00F
:10D7A0007B681B685B6823F480117B685A6C7B681C
:10D7B0001B680A435A607B685B6CB3F5801F0AD113
:10D7C0007B681B685B6823F4C0017B689A6C7B688C
:10D7D0001B680A435A607B689B6A03F08003002B36
:10D7E0000AD07B681B685B6823F400217B68DA6CD5
:10D7F0007B681B680A435A6000BF0C37BD465DF862
:10D80000047B704780B586B002AF78607B680022E9
:10D81000C3F89020FCF7B4F9F8607B681B681B68BC
:10D8200003F00803082B0ED16FF07E430093FB68D2
:10D8300000224FF40011786800F032F80346002B04
:10D8400001D0032328E07B681B681B6803F00403F6
:10D85000042B0ED16FF07E430093FB6800224FF43F
:10D860008001786800F01CF80346002B01D00323E8
:10D8700012E07B682022C3F888207B682022C3F84E
:10D880008C207B680022DA667B6800221A677B683E
:10D89000002283F88420002318461037BD4680BD3F
:10D8A00080B59CB000AFF860B9603B601346FB7177
:10D8B000A9E0BB6FB3F1FF3F00F0A580FCF760F972
:10D8C00002463B68D31ABA6F9A4202D3BB6F002B51
:10D8D00040D1FB681B683B653B6D53E8003FFB6430
:10D8E000FB6C23F4D0737B66FB681B681A467B6E67
:10D8F000FB65BA65B96DFA6D41E800237B657B6D08
:10D90000002BE6D1FB681B680833FB63FB6B53E815
:10D91000003FBB63BB6B23F001033B66FB681B68E6
:10D9200008333A6EBA647B64796CBA6C41E80023C0
:10D930003B643B6C002BE5D1FB682022C3F88820B8
:10D94000FB682022C3F88C20FB68002283F8842027
:10D95000032369E0FB681B681B6803F00403002BCA
:10D9600051D0FB681B68DB6903F40063B3F5006FFB
:10D9700049D1FB681B684FF400621A62FB681B68A0
:10D98000BB62BB6A53E8003F7B627B6A23F4D073BF
:10D99000FB66FB681B681A46FB6E7B633A63396B58
:10D9A0007A6B41E80023FB62FB6A002BE6D1FB683F
:10D9B0001B6808337B617B6953E8003F3B613B692F
:10D9C00023F00103BB66FB681B680833BA6E3A623A
:10D9D000FB61F9693A6A41E80023BB61BB69002B2E
:10D9E000E5D1FB682022C3F88820FB682022C3F819
:10D9F0008C20FB682022C3F89020FB68002283F86B
:10DA00008420032310E0FB681B68DA69BB681340BD
:10DA1000BA689A420CBF01230023DBB21A46FB7995
:10DA20009A423FF446AF002318467037BD4680BD8A
:10DA300080B4A3B000AFF860B9601346FB80FB6808
:10DA4000BA689A65FB68FA88A3F85C20FB68FA88D4
:10DA5000A3F85E20FB6800225A67FB689B68B3F559
:10DA6000805F0ED1FB681B69002B05D1FB6840F27B
:10DA7000FF12A3F860202DE0FB68FF22A3F86020CE
:10DA800028E0FB689B68002B0DD1FB681B69002B0D
:10DA900004D1FB68FF22A3F860201BE0FB687F2213
:10DAA000A3F8602016E0FB689B68B3F1805F0DD19E
:10DAB000FB681B69002B04D1FB687F22A3F8602060
:10DAC00008E0FB683F22A3F8602003E0FB68002227
:10DAD000A3F86020FB680022C3F89020FB68222294
:10DAE000C3F88C20FB681B6808337B667B6E53E8A9
:10DAF000003F3B663B6E43F00103C7F88430FB6890
:10DB00001B680833D7F884203A67FB66F96E3A6FD2
:10DB100041E80023BB66BB6E002BE3D1FB685B6E64
:10DB2000B3F1005F4FD1FB68B3F86830FA889A42CE
:10DB300049D3FB689B68B3F5805F07D1FB681B691D
:10DB4000002B03D1FB68474A5A6702E0FB68464A4C
:10DB50005A67FB681B69002B1AD0FB681B683B6582
:10DB60003B6D53E8003FFB64FB6C43F48073C7F8E4
:10DB70008030FB681B681A46D7F88030FB65BA65B1
:10DB8000B96DFA6D41E800237B657B6D002BE4D114
:10DB9000FB681B680833FB63FB6B53E8003FBB6308
:10DBA000BB6B43F08053FB67FB681B680833FA6F5D
:10DBB000BA647B64796CBA6C41E800233B643B6CCB
:10DBC000002BE5D146E0FB689B68B3F5805F07D189
:10DBD000FB681B69002B03D1FB68244A5A6702E0EB
:10DBE000FB68234A5A67FB681B69002B19D0FB6846
:10DBF0001B68BB62BB6A53E8003F7B627B6A43F4ED
:10DC000090737B67FB681B681A467B6F7B633A6384
:10DC1000396B7A6B41E80023FB62FB6A002BE6D18B
:10DC200018E0FB681B687B617B6953E8003F3B6140
:10DC30003B6943F02003BB67FB681B681A46BB6F58
:10DC40003B62FA61F9693A6A41E80023BB61BB694A
:10DC5000002BE6D1002318468C37BD465DF8047BC7
:10DC6000704700BF3DE2080841DF0808DBDD080817
:10DC700075DC080880B596B000AF78607B68B3F8B3
:10DC80006030A7F856307B68D3F88C30222B40F0F8
:10DC900098807B681B685B6AA7F85430B7F85430EB
:10DCA000D9B2B7F85630DAB27B689B6D0A40D2B26F
:10DCB0001A707B689B6D5A1C7B689A657B68B3F809
:10DCC0005E309BB2013B9AB27B68A3F85E207B6812
:10DCD000B3F85E309BB2002B7BD17B681B68BB63C3
:10DCE000BB6B53E8003F7B637B6B23F490733B6516
:10DCF0007B681B681A463B6D7B643A64396C7A6CAE
:10DD000041E80023FB63FB6B002BE6D17B681B68BB
:10DD100008337B627B6A53E8003F3B623B6A23F037
:10DD20000103FB647B681B680833FA6C3A63FB628F
:10DD3000F96A3A6B41E80023BB62BB6A002BE5D16C
:10DD40007B682022C3F88C207B6800225A677B689E
:10DD500000221A677B68DB6E012B2ED17B680022C4
:10DD6000DA667B681B683B613B6953E8003FFB60F8
:10DD7000FB6823F01003BB647B681B681A46BB6C0E
:10DD8000FB61BA61B969FA6941E800237B617B698B
:10DD9000002BE6D17B681B68DB6903F01003102BB6
:10DDA00003D17B681B6810221A627B68B3F85C3071
:10DDB00019467868FFF78AFA0BE07868FFF772FA7D
:10DDC00007E07B681B689A697B681B6842F0080261
:10DDD0009A6100BF5837BD4680BD80B596B000AF90
:10DDE00078607B68B3F86030A7F856307B68D3F86A
:10DDF0008C30222B40F098807B681B685B6AA7F808
:10DE000054307B689B6D3B65B7F85420B7F85630AB
:10DE100013409AB23B6D1A807B689B6D9A1C7B689D
:10DE20009A657B68B3F85E309BB2013B9AB27B681F
:10DE3000A3F85E207B68B3F85E309BB2002B7BD1E9
:10DE40007B681B687B637B6B53E8003F3B633B6BEA
:10DE500023F49073FB647B681B681A46FB6C3B647D
:10DE6000FA63F96B3A6C41E80023BB63BB6B002B90
:10DE7000E6D17B681B6808333B623B6A53E8003F8E
:10DE8000FB61FB6923F00103BB647B681B680833FB
:10DE9000BA6CFA62BB62B96AFA6A41E800237B6233
:10DEA0007B6A002BE5D17B682022C3F88C207B683D
:10DEB00000225A677B6800221A677B68DB6E012BA1
:10DEC0002ED17B680022DA667B681B68FB60FB68EA
:10DED00053E8003FBB60BB6823F010037B647B68A2
